S01200004D696C6573746F6E65332E737265632F
S11300000C9434000C940F020C9469020C94460076
S11300100C9446000C9446000C9446000C94460044
S11300200C9446000C9446000C9446000C94460034
S11300300C9446000C9446000C94D7010C94460092
S11300400C9446000C9446000C9446000C94460014
S11300500C9446000C94AB010C9446000C9446009E
S11300600C9446000C94460011241FBECFEFD8E038
S1130070DEBFCDBF21E0A0E0B1E001C01D92AE31F2
S1130080B207E1F70E94C3020C94CD020C94000065
S1130090ECE7F0E080E48083808180628083EAE79B
S11300A0F0E080E880838081806280838081886042
S11300B080838081876080838081806480830895C9
S11300C082E084BD85BD80936E0084E187BD089580
S11300D083E08DBB85E080936900089586E084B950
S11300E082EA80938000E1E8F0E088E18083808107
S11300F08260808380E49CE99093870080938600EB
S113010008950F931F9380911A0190911B01A09160
S11301101C01B0911D0181319742A105B10590F0F8
S11301208091160190911701A0911801B0911901C5
S113013081319742A105B10528F010920101109276
S11301400001C5C080911A0190911B01A0911C016E
S1130150B0911D0181319742A105B105A8F08091AC
S113016002019091030105977CF010921A011092FC
S11301701B0110921C0110921D0181E090E09093EC
S1130180010180930001A3C0809116019091170191
S1130190A0911801B091190181319742A105B105CF
S11301A0A8F0809104019091050105977CF01092CC
S11301B016011092170110921801109219018FEF75
S11301C09FEF909301018093000181C0809104010D
S11301D090910501009741F02091020130910301B3
S11301E0232B09F471C007C080910201909103018F
S11301F002970CF46CC080910A0190910B01A091BC
S11302000C01B0910D01009106011091070120919C
S1130210080130910901AC01BD01401B510B620B77
S1130220730B081719072A073B0710F4D901C801F3
S1130230880F991FAA1FBB1F880F991FAA1FBB1FD6
S1130240880F991FAA1FBB1F880F991FAA1FBB1FC6
S113025084179507A607B7073CF481E090E09093D4
S113026001018093000117C0B095A09590958195E8
S11302709F4FAF4FBF4F481759076A077B073CF49E
S11302808FEF9FEF909301018093000104C01092BF
S113029001011092000110920A0110920B011092B8
S11302A00C0110920D011092060110920701109298
S11302B00801109209011092050110920401109294
S11302C003011092020103C002970CF094CF1F9116
S11302D00F910895CF93DF93D82FC92F0E948100E7
S11302E08D2F9C2F992314F480E090E08C3E91058F
S11302F014F08BEE90E02091000130910101213047
S1130300310551F09C0122953295307F3227207FB0
S1130310322728513C4F02C028EE33E03093890045
S11303202093880020910001309101012F3F3F4F1D
S113033049F082959295907F9827807F98278851DD
S11303409C4F02C088EE93E090938B0080938A00C8
S1130350DF91CF9108951F920F920FB60F9211243F
S11303602F933F934F935F936F937F938F939F93B9
S1130370AF93BF93EF93FF939091790020E830E01F
S1130380A901491B5109CA010E946A01FF91EF9119
S1130390BF91AF919F918F917F916F915F914F9199
S11303A03F912F910F900FBE0F901F9018951F92A1
S11303B00F920FB60F9211248F939F93AF93BF9315
S11303C080911A0190911B01A0911C01B0911D0113
S11303D00196A11DB11D80931A0190931B01A09356
S11303E01C01B0931D018091160190911701A091F9
S11303F01801B09119010196A11DB11D8093160138
S113040090931701A0931801B0931901BF91AF9174
S11304109F918F910F900FBE0F901F9018951F9270
S11304200F920FB60F9211244F935F936F937F93A4
S11304308F939F93AF93BF934A9B11C080911A01EE
S113044090911B01A0911C01B0911D018093120198
S113045090931301A0931401B09315012DC08091C2
S11304601A0190911B01A0911C01B0911D014091B2
S11304701201509113016091140170911501841BB4
S1130480950BA60BB70B80930A0190930B01A093D5
S11304900C01B0930D018091040190910501019626
S11304A0909305018093040110921A0110921B018C
S11304B010921C0110921D01BF91AF919F918F91D9
S11304C07F916F915F914F910F900FBE0F901F908E
S11304D018951F920F920FB60F9211244F935F93AA
S11304E06F937F938F939F93AF93BF934B9B11C055
S11304F08091160190911701A0911801B0911901F2
S113050080930E0190930F01A0931001B0931101F9
S11305102DC08091160190911701A0911801B091FE
S1130520190140910E0150910F01609110017091D9
S11305301101841B950BA60BB70B809306019093B6
S11305400701A0930801B0930901809102019091E1
S11305500301019690930301809302011092160106
S1130560109217011092180110921901BF91AF91C6
S11305709F918F917F916F915F914F910F900FBEDB
S11305800F901F9018950E9448000E9460000E94DE
S111059068000E946E007894FFCFF894FFCFAD
S9030000FC
