:100000000C9434000C943E000C943E000C943E0082
:100010000C943E000C943E000C943E000C943E0068
:100020000C943E000C943E000C943E000C943E0058
:100030000C943E000C943E000C943E000C943E0048
:100040000C943E000C943E000C943E000C943E0038
:100050000C943E000C944A000C943E000C943E001C
:100060000C943E000C943E0011241FBECFEFD8E04C
:10007000DEBFCDBF0E9482000C9489000C9400006A
:10008000569A8BE084BD84B5806884BD81E085BDCF
:1000900017BC08951F920F920FB60F9211248F93E1
:1000A0009F93F8948091790087BD8FE99FE0019735
:1000B000F1F700C0000078949F918F910F900FBED0
:1000C0000F901F901895ECE7F0E080E4808380812A
:1000D00080628083EAE7F0E080E88083808180624C
:1000E000808380818860808380818760808378942A
:1000F0008081806480838FE99FE00197F1F700C0E1
:10010000000008950E9440000E94630080E090E09B
:060110000895F894FFCFF2
:00000001FF
